{"abi":[{"type":"constructor","inputs":[{"name":"_usdc","type":"address","internalType":"address"},{"name":"_matic","type":"address","internalType":"address"}],"stateMutability":"nonpayable"},{"type":"fallback","stateMutability":"payable"},{"type":"receive","stateMutability":"payable"},{"type":"function","name":"ETH_ADDRESS","inputs":[],"outputs":[{"name":"","type":"address","internalType":"address"}],"stateMutability":"view"},{"type":"function","name":"MATIC","inputs":[],"outputs":[{"name":"","type":"address","internalType":"address"}],"stateMutability":"view"},{"type":"function","name":"USDC","inputs":[],"outputs":[{"name":"","type":"address","internalType":"address"}],"stateMutability":"view"},{"type":"function","name":"addETHInterest","inputs":[],"outputs":[],"stateMutability":"payable"},{"type":"function","name":"addMATICInterest","inputs":[{"name":"amount","type":"uint256","internalType":"uint256"}],"outputs":[],"stateMutability":"nonpayable"},{"type":"function","name":"addUSDCInterest","inputs":[{"name":"amount","type":"uint256","internalType":"uint256"}],"outputs":[],"stateMutability":"nonpayable"},{"type":"function","name":"depositETH","inputs":[],"outputs":[],"stateMutability":"payable"},{"type":"function","name":"depositMATIC","inputs":[{"name":"amount","type":"uint256","internalType":"uint256"}],"outputs":[],"stateMutability":"nonpayable"},{"type":"function","name":"depositUSDC","inputs":[{"name":"amount","type":"uint256","internalType":"uint256"}],"outputs":[],"stateMutability":"nonpayable"},{"type":"function","name":"getETHExchangeRate","inputs":[],"outputs":[{"name":"","type":"uint256","internalType":"uint256"}],"stateMutability":"view"},{"type":"function","name":"getMATICExchangeRate","inputs":[],"outputs":[{"name":"","type":"uint256","internalType":"uint256"}],"stateMutability":"view"},{"type":"function","name":"getTotalReserves","inputs":[{"name":"asset","type":"address","internalType":"address"}],"outputs":[{"name":"","type":"uint256","internalType":"uint256"}],"stateMutability":"view"},{"type":"function","name":"getUSDCExchangeRate","inputs":[],"outputs":[{"name":"","type":"uint256","internalType":"uint256"}],"stateMutability":"view"},{"type":"function","name":"getUserETHBalance","inputs":[{"name":"user","type":"address","internalType":"address"}],"outputs":[{"name":"","type":"uint256","internalType":"uint256"}],"stateMutability":"view"},{"type":"function","name":"getUserETHShares","inputs":[{"name":"user","type":"address","internalType":"address"}],"outputs":[{"name":"","type":"uint256","internalType":"uint256"}],"stateMutability":"view"},{"type":"function","name":"getUserMATICBalance","inputs":[{"name":"user","type":"address","internalType":"address"}],"outputs":[{"name":"","type":"uint256","internalType":"uint256"}],"stateMutability":"view"},{"type":"function","name":"getUserMATICShares","inputs":[{"name":"user","type":"address","internalType":"address"}],"outputs":[{"name":"","type":"uint256","internalType":"uint256"}],"stateMutability":"view"},{"type":"function","name":"getUserUSDCBalance","inputs":[{"name":"user","type":"address","internalType":"address"}],"outputs":[{"name":"","type":"uint256","internalType":"uint256"}],"stateMutability":"view"},{"type":"function","name":"getUserUSDCShares","inputs":[{"name":"user","type":"address","internalType":"address"}],"outputs":[{"name":"","type":"uint256","internalType":"uint256"}],"stateMutability":"view"},{"type":"function","name":"owner","inputs":[],"outputs":[{"name":"","type":"address","internalType":"address"}],"stateMutability":"view"},{"type":"function","name":"renounceOwnership","inputs":[],"outputs":[],"stateMutability":"nonpayable"},{"type":"function","name":"saETH","inputs":[],"outputs":[{"name":"","type":"address","internalType":"contract SaToken"}],"stateMutability":"view"},{"type":"function","name":"saMATIC","inputs":[],"outputs":[{"name":"","type":"address","internalType":"contract SaToken"}],"stateMutability":"view"},{"type":"function","name":"saUSDC","inputs":[],"outputs":[{"name":"","type":"address","internalType":"contract SaToken"}],"stateMutability":"view"},{"type":"function","name":"totalReserves","inputs":[{"name":"","type":"address","internalType":"address"}],"outputs":[{"name":"","type":"uint256","internalType":"uint256"}],"stateMutability":"view"},{"type":"function","name":"transferOwnership","inputs":[{"name":"newOwner","type":"address","internalType":"address"}],"outputs":[],"stateMutability":"nonpayable"},{"type":"function","name":"withdrawETH","inputs":[{"name":"shares","type":"uint256","internalType":"uint256"}],"outputs":[],"stateMutability":"nonpayable"},{"type":"function","name":"withdrawMATIC","inputs":[{"name":"shares","type":"uint256","internalType":"uint256"}],"outputs":[],"stateMutability":"nonpayable"},{"type":"function","name":"withdrawUSDC","inputs":[{"name":"shares","type":"uint256","internalType":"uint256"}],"outputs":[],"stateMutability":"nonpayable"},{"type":"event","name":"Deposit","inputs":[{"name":"user","type":"address","indexed":true,"internalType":"address"},{"name":"asset","type":"address","indexed":true,"internalType":"address"},{"name":"amount","type":"uint256","indexed":false,"internalType":"uint256"},{"name":"shares","type":"uint256","indexed":false,"internalType":"uint256"}],"anonymous":false},{"type":"event","name":"InterestAdded","inputs":[{"name":"asset","type":"address","indexed":true,"internalType":"address"},{"name":"amount","type":"uint256","indexed":false,"internalType":"uint256"}],"anonymous":false},{"type":"event","name":"OwnershipTransferred","inputs":[{"name":"previousOwner","type":"address","indexed":true,"internalType":"address"},{"name":"newOwner","type":"address","indexed":true,"internalType":"address"}],"anonymous":false},{"type":"event","name":"Withdraw","inputs":[{"name":"user","type":"address","indexed":true,"internalType":"address"},{"name":"asset","type":"address","indexed":true,"internalType":"address"},{"name":"amount","type":"uint256","indexed":false,"internalType":"uint256"},{"name":"shares","type":"uint256","indexed":false,"internalType":"uint256"}],"anonymous":false},{"type":"error","name":"OwnableInvalidOwner","inputs":[{"name":"owner","type":"address","internalType":"address"}]},{"type":"error","name":"OwnableUnauthorizedAccount","inputs":[{"name":"account","type":"address","internalType":"address"}]},{"type":"error","name":"ReentrancyGuardReentrantCall","inputs":[]}],"bytecode":{"object":"0x60c060405234801562000010575f80fd5b5060405162005bd138038062005bd18339818101604052810190620000369190620003d0565b335f73ffffffffffffffffffffffffffffffffffffffff168173ffffffffffffffffffffffffffffffffffffffff1603620000aa575f6040517f1e4fbdf7000000000000000000000000000000000000000000000000000000008152600401620000a1919062000426565b60405180910390fd5b620000bb816200029c60201b60201c565b50600180819055508173ffffffffffffffffffffffffffffffffffffffff1660808173ffffffffffffffffffffffffffffffffffffffff16815250508073ffffffffffffffffffffffffffffffffffffffff1660a08173ffffffffffffffffffffffffffffffffffffffff16815250505f306040516200013b906200035d565b62000148929190620004ed565b604051809103905ff08015801562000162573d5f803e3d5ffd5b5060025f6101000a81548173ffffffffffffffffffffffffffffffffffffffff021916908373ffffffffffffffffffffffffffffffffffffffff16021790555060805130604051620001b4906200035d565b620001c1929190620005de565b604051809103905ff080158015620001db573d5f803e3d5ffd5b5060035f6101000a81548173ffffffffffffffffffffffffffffffffffffffff021916908373ffffffffffffffffffffffffffffffffffffffff16021790555060a051306040516200022d906200035d565b6200023a929190620006cf565b604051809103905ff08015801562000254573d5f803e3d5ffd5b5060045f6101000a81548173ffffffffffffffffffffffffffffffffffffffff021916908373ffffffffffffffffffffffffffffffffffffffff160217905550505062000724565b5f805f9054906101000a900473ffffffffffffffffffffffffffffffffffffffff169050815f806101000a81548173ffffffffffffffffffffffffffffffffffffffff021916908373ffffffffffffffffffffffffffffffffffffffff1602179055508173ffffffffffffffffffffffffffffffffffffffff168173ffffffffffffffffffffffffffffffffffffffff167f8be0079c531659141344cd1fd0a4f28419497f9722a3daafe3b4186f6b6457e060405160405180910390a35050565b612752806200347f83390190565b5f80fd5b5f73ffffffffffffffffffffffffffffffffffffffff82169050919050565b5f6200039a826200036f565b9050919050565b620003ac816200038e565b8114620003b7575f80fd5b50565b5f81519050620003ca81620003a1565b92915050565b5f8060408385031215620003e957620003e86200036b565b5b5f620003f885828601620003ba565b92505060206200040b85828601620003ba565b9150509250929050565b62000420816200038e565b82525050565b5f6020820190506200043b5f83018462000415565b92915050565b5f82825260208201905092915050565b7f53686172652045544800000000000000000000000000000000000000000000005f82015250565b5f6200048760098362000441565b9150620004948262000451565b602082019050919050565b7f73614554480000000000000000000000000000000000000000000000000000005f82015250565b5f620004d560058362000441565b9150620004e2826200049f565b602082019050919050565b5f6080820190508181035f830152620005068162000479565b905081810360208301526200051b81620004c7565b90506200052c604083018562000415565b6200053b606083018462000415565b9392505050565b7f53686172652055534443000000000000000000000000000000000000000000005f82015250565b5f62000578600a8362000441565b9150620005858262000542565b602082019050919050565b7f73615553444300000000000000000000000000000000000000000000000000005f82015250565b5f620005c660068362000441565b9150620005d38262000590565b602082019050919050565b5f6080820190508181035f830152620005f7816200056a565b905081810360208301526200060c81620005b8565b90506200061d604083018562000415565b6200062c606083018462000415565b9392505050565b7f5368617265204d415449430000000000000000000000000000000000000000005f82015250565b5f62000669600b8362000441565b9150620006768262000633565b602082019050919050565b7f73614d41544943000000000000000000000000000000000000000000000000005f82015250565b5f620006b760078362000441565b9150620006c48262000681565b602082019050919050565b5f6080820190508181035f830152620006e8816200065b565b90508181036020830152620006fd81620006a9565b90506200070e604083018562000415565b6200071d606083018462000415565b9392505050565b60805160a051612c9f620007e05f395f81816107040152818161077201528181610814015281816108c30152818161096701528181610e0f01528181610eec01528181610f5b01528181610ff70152818161111d0152818161125e01526112cd01525f818161108a015281816113fa0152818161149c0152818161154b015281816115ef015281816118720152818161194f015281816119be01528181611a5a015281816122aa015281816123eb015261245a0152612c9f5ff3fe6080604052600436106101c5575f3560e01c80638da5cb5b116100f6578063de4a8a0811610094578063f2fde38b11610063578063f2fde38b14610658578063f529974f14610680578063f6326fb31461068a578063f688bcfb14610694576101cc565b8063de4a8a08146105a0578063e57439af146105ca578063eb47ea66146105f4578063f14210a614610630576101cc565b8063a8f052b9116100d0578063a8f052b9146104fc578063ab08e93a14610524578063b9ab07891461054e578063db81f99b14610578576101cc565b80638da5cb5b1461047e5780638dff7ec3146104a8578063a734f06e146104d2576101cc565b80636d0800bc11610163578063816837e31161013d578063816837e3146103da57806389a30271146104025780638aa6aaba1461042c5780638b8500ff14610456576101cc565b80636d0800bc1461034c578063715018a61461038857806375eb23651461039e576101cc565b806336ce66601161019f57806336ce66601461025c57806339d311a814610298578063464beb06146102d457806367c98cad14610310576101cc565b8063050e5705146101ce57806315b550d61461020a578063345cf42b14610234576101cc565b366101cc57005b005b3480156101d9575f80fd5b506101f460048036038101906101ef91906126e7565b6106bc565b604051610201919061272a565b60405180910390f35b348015610215575f80fd5b5061021e610702565b60405161022b9190612752565b60405180910390f35b34801561023f575f80fd5b5061025a60048036038101906102559190612795565b610726565b005b348015610267575f80fd5b50610282600480360381019061027d91906126e7565b6109d6565b60405161028f919061272a565b60405180910390f35b3480156102a3575f80fd5b506102be60048036038101906102b991906126e7565b610a77565b6040516102cb919061272a565b60405180910390f35b3480156102df575f80fd5b506102fa60048036038101906102f591906126e7565b610b18565b604051610307919061272a565b60405180910390f35b34801561031b575f80fd5b50610336600480360381019061033191906126e7565b610bb9565b604051610343919061272a565b60405180910390f35b348015610357575f80fd5b50610372600480360381019061036d91906126e7565b610c5a565b60405161037f919061272a565b60405180910390f35b348015610393575f80fd5b5061039c610c6f565b005b3480156103a9575f80fd5b506103c460048036038101906103bf91906126e7565b610c82565b6040516103d1919061272a565b60405180910390f35b3480156103e5575f80fd5b5061040060048036038101906103fb9190612795565b610d23565b005b34801561040d575f80fd5b50610416611088565b6040516104239190612752565b60405180910390f35b348015610437575f80fd5b506104406110ac565b60405161044d919061281b565b60405180910390f35b348015610461575f80fd5b5061047c60048036038101906104779190612795565b6110d1565b005b348015610489575f80fd5b5061049261135e565b60405161049f9190612752565b60405180910390f35b3480156104b3575f80fd5b506104bc611385565b6040516104c9919061281b565b60405180910390f35b3480156104dd575f80fd5b506104e66113aa565b6040516104f39190612752565b60405180910390f35b348015610507575f80fd5b50610522600480360381019061051d9190612795565b6113ae565b005b34801561052f575f80fd5b5061053861165e565b604051610545919061272a565b60405180910390f35b348015610559575f80fd5b506105626116f2565b60405161056f919061272a565b60405180910390f35b348015610583575f80fd5b5061059e60048036038101906105999190612795565b611786565b005b3480156105ab575f80fd5b506105b4611aeb565b6040516105c1919061281b565b60405180910390f35b3480156105d5575f80fd5b506105de611b10565b6040516105eb919061272a565b60405180910390f35b3480156105ff575f80fd5b5061061a600480360381019061061591906126e7565b611ba4565b604051610627919061272a565b60405180910390f35b34801561063b575f80fd5b5061065660048036038101906106519190612795565b611c45565b005b348015610663575f80fd5b5061067e600480360381019061067991906126e7565b611e7b565b005b610688611eff565b005b6106926120b0565b005b34801561069f575f80fd5b506106ba60048036038101906106b59190612795565b61225e565b005b5f60055f8373ffffffffffffffffffffffffffffffffffffffff1673ffffffffffffffffffffffffffffffffffffffff1681526020019081526020015f20549050919050565b7f000000000000000000000000000000000000000000000000000000000000000081565b61072e6124eb565b5f8111610770576040517f08c379a00000000000000000000000000000000000000000000000000000000081526004016107679061288e565b60405180910390fd5b7f000000000000000000000000000000000000000000000000000000000000000073ffffffffffffffffffffffffffffffffffffffff166323b872dd3330846040518463ffffffff1660e01b81526004016107cd939291906128ac565b6020604051808303815f875af11580156107e9573d5f803e3d5ffd5b505050506040513d601f19601f8201168201806040525081019061080d9190612916565b508060055f7f000000000000000000000000000000000000000000000000000000000000000073ffffffffffffffffffffffffffffffffffffffff1673ffffffffffffffffffffffffffffffffffffffff1681526020019081526020015f205f82825461087a919061296e565b9250508190555060045f9054906101000a900473ffffffffffffffffffffffffffffffffffffffff1673ffffffffffffffffffffffffffffffffffffffff1663bc4f2d6d60055f7f000000000000000000000000000000000000000000000000000000000000000073ffffffffffffffffffffffffffffffffffffffff1673ffffffffffffffffffffffffffffffffffffffff1681526020019081526020015f20546040518263ffffffff1660e01b8152600401610938919061272a565b5f604051808303815f87803b15801561094f575f80fd5b505af1158015610961573d5f803e3d5ffd5b505050507f000000000000000000000000000000000000000000000000000000000000000073ffffffffffffffffffffffffffffffffffffffff167f46d43e5b87357e48b11ed779391dde82d3e7a90d3611250dc284aec8509c6855826040516109cb919061272a565b60405180910390a250565b5f60045f9054906101000a900473ffffffffffffffffffffffffffffffffffffffff1673ffffffffffffffffffffffffffffffffffffffff166370a08231836040518263ffffffff1660e01b8152600401610a319190612752565b602060405180830381865afa158015610a4c573d5f803e3d5ffd5b505050506040513d601f19601f82011682018060405250810190610a7091906129b5565b9050919050565b5f60045f9054906101000a900473ffffffffffffffffffffffffffffffffffffffff1673ffffffffffffffffffffffffffffffffffffffff1663f5eb42dc836040518263ffffffff1660e01b8152600401610ad29190612752565b602060405180830381865afa158015610aed573d5f803e3d5ffd5b505050506040513d601f19601f82011682018060405250810190610b1191906129b5565b9050919050565b5f60025f9054906101000a900473ffffffffffffffffffffffffffffffffffffffff1673ffffffffffffffffffffffffffffffffffffffff166370a08231836040518263ffffffff1660e01b8152600401610b739190612752565b602060405180830381865afa158015610b8e573d5f803e3d5ffd5b505050506040513d601f19601f82011682018060405250810190610bb291906129b5565b9050919050565b5f60035f9054906101000a900473ffffffffffffffffffffffffffffffffffffffff1673ffffffffffffffffffffffffffffffffffffffff1663f5eb42dc836040518263ffffffff1660e01b8152600401610c149190612752565b602060405180830381865afa158015610c2f573d5f803e3d5ffd5b505050506040513d601f19601f82011682018060405250810190610c5391906129b5565b9050919050565b6005602052805f5260405f205f915090505481565b610c776124eb565b610c805f612572565b565b5f60025f9054906101000a900473ffffffffffffffffffffffffffffffffffffffff1673ffffffffffffffffffffffffffffffffffffffff1663f5eb42dc836040518263ffffffff1660e01b8152600401610cdd9190612752565b602060405180830381865afa158015610cf8573d5f803e3d5ffd5b505050506040513d601f19601f82011682018060405250810190610d1c91906129b5565b9050919050565b610d2b612633565b5f8111610d6d576040517f08c379a0000000000000000000000000000000000000000000000000000000008152600401610d6490612a2a565b60405180910390fd5b5f60045f9054906101000a900473ffffffffffffffffffffffffffffffffffffffff1673ffffffffffffffffffffffffffffffffffffffff16639dc29fac33846040518363ffffffff1660e01b8152600401610dca929190612a48565b6020604051808303815f875af1158015610de6573d5f803e3d5ffd5b505050506040513d601f19601f82011682018060405250810190610e0a91906129b5565b9050807f000000000000000000000000000000000000000000000000000000000000000073ffffffffffffffffffffffffffffffffffffffff166370a08231306040518263ffffffff1660e01b8152600401610e669190612752565b602060405180830381865afa158015610e81573d5f803e3d5ffd5b505050506040513d601f19601f82011682018060405250810190610ea591906129b5565b1015610ee6576040517f08c379a0000000000000000000000000000000000000000000000000000000008152600401610edd90612ab9565b60405180910390fd5b8060055f7f000000000000000000000000000000000000000000000000000000000000000073ffffffffffffffffffffffffffffffffffffffff1673ffffffffffffffffffffffffffffffffffffffff1681526020019081526020015f205f828254610f529190612ad7565b925050819055507f000000000000000000000000000000000000000000000000000000000000000073ffffffffffffffffffffffffffffffffffffffff1663a9059cbb33836040518363ffffffff1660e01b8152600401610fb4929190612a48565b6020604051808303815f875af1158015610fd0573d5f803e3d5ffd5b505050506040513d601f19601f82011682018060405250810190610ff49190612916565b507f000000000000000000000000000000000000000000000000000000000000000073ffffffffffffffffffffffffffffffffffffffff163373ffffffffffffffffffffffffffffffffffffffff167ff341246adaac6f497bc2a656f546ab9e182111d630394f0c57c710a59a2cb5678385604051611074929190612b0a565b60405180910390a350611085612679565b50565b7f000000000000000000000000000000000000000000000000000000000000000081565b60035f9054906101000a900473ffffffffffffffffffffffffffffffffffffffff1681565b6110d9612633565b5f811161111b576040517f08c379a000000000000000000000000000000000000000000000000000000000815260040161111290612b7b565b60405180910390fd5b7f000000000000000000000000000000000000000000000000000000000000000073ffffffffffffffffffffffffffffffffffffffff166323b872dd3330846040518463ffffffff1660e01b8152600401611178939291906128ac565b6020604051808303815f875af1158015611194573d5f803e3d5ffd5b505050506040513d601f19601f820116820180604052508101906111b89190612916565b505f60045f9054906101000a900473ffffffffffffffffffffffffffffffffffffffff1673ffffffffffffffffffffffffffffffffffffffff166340c10f1933846040518363ffffffff1660e01b8152600401611216929190612a48565b6020604051808303815f875af1158015611232573d5f803e3d5ffd5b505050506040513d601f19601f8201168201806040525081019061125691906129b5565b90508160055f7f000000000000000000000000000000000000000000000000000000000000000073ffffffffffffffffffffffffffffffffffffffff1673ffffffffffffffffffffffffffffffffffffffff1681526020019081526020015f205f8282546112c4919061296e565b925050819055507f000000000000000000000000000000000000000000000000000000000000000073ffffffffffffffffffffffffffffffffffffffff163373ffffffffffffffffffffffffffffffffffffffff167fdcbc1c05240f31ff3ad067ef1ee35ce4997762752e3a095284754544f4c709d7848460405161134a929190612b0a565b60405180910390a35061135b612679565b50565b5f805f9054906101000a900473ffffffffffffffffffffffffffffffffffffffff16905090565b60045f9054906101000a900473ffffffffffffffffffffffffffffffffffffffff1681565b5f81565b6113b66124eb565b5f81116113f8576040517f08c379a00000000000000000000000000000000000000000000000000000000081526004016113ef9061288e565b60405180910390fd5b7f000000000000000000000000000000000000000000000000000000000000000073ffffffffffffffffffffffffffffffffffffffff166323b872dd3330846040518463ffffffff1660e01b8152600401611455939291906128ac565b6020604051808303815f875af1158015611471573d5f803e3d5ffd5b505050506040513d601f19601f820116820180604052508101906114959190612916565b508060055f7f000000000000000000000000000000000000000000000000000000000000000073ffffffffffffffffffffffffffffffffffffffff1673ffffffffffffffffffffffffffffffffffffffff1681526020019081526020015f205f828254611502919061296e565b9250508190555060035f9054906101000a900473ffffffffffffffffffffffffffffffffffffffff1673ffffffffffffffffffffffffffffffffffffffff1663bc4f2d6d60055f7f000000000000000000000000000000000000000000000000000000000000000073ffffffffffffffffffffffffffffffffffffffff1673ffffffffffffffffffffffffffffffffffffffff1681526020019081526020015f20546040518263ffffffff1660e01b81526004016115c0919061272a565b5f604051808303815f87803b1580156115d7575f80fd5b505af11580156115e9573d5f803e3d5ffd5b505050507f000000000000000000000000000000000000000000000000000000000000000073ffffffffffffffffffffffffffffffffffffffff167f46d43e5b87357e48b11ed779391dde82d3e7a90d3611250dc284aec8509c685582604051611653919061272a565b60405180910390a250565b5f60045f9054906101000a900473ffffffffffffffffffffffffffffffffffffffff1673ffffffffffffffffffffffffffffffffffffffff1663e6aa216c6040518163ffffffff1660e01b8152600401602060405180830381865afa1580156116c9573d5f803e3d5ffd5b505050506040513d601f19601f820116820180604052508101906116ed91906129b5565b905090565b5f60025f9054906101000a900473ffffffffffffffffffffffffffffffffffffffff1673ffffffffffffffffffffffffffffffffffffffff1663e6aa216c6040518163ffffffff1660e01b8152600401602060405180830381865afa15801561175d573d5f803e3d5ffd5b505050506040513d601f19601f8201168201806040525081019061178191906129b5565b905090565b61178e612633565b5f81116117d0576040517f08c379a00000000000000000000000000000000000000000000000000000000081526004016117c790612a2a565b60405180910390fd5b5f60035f9054906101000a900473ffffffffffffffffffffffffffffffffffffffff1673ffffffffffffffffffffffffffffffffffffffff16639dc29fac33846040518363ffffffff1660e01b815260040161182d929190612a48565b6020604051808303815f875af1158015611849573d5f803e3d5ffd5b505050506040513d601f19601f8201168201806040525081019061186d91906129b5565b9050807f000000000000000000000000000000000000000000000000000000000000000073ffffffffffffffffffffffffffffffffffffffff166370a08231306040518263ffffffff1660e01b81526004016118c99190612752565b602060405180830381865afa1580156118e4573d5f803e3d5ffd5b505050506040513d601f19601f8201168201806040525081019061190891906129b5565b1015611949576040517f08c379a000000000000000000000000000000000000000000000000000000000815260040161194090612be3565b60405180910390fd5b8060055f7f000000000000000000000000000000000000000000000000000000000000000073ffffffffffffffffffffffffffffffffffffffff1673ffffffffffffffffffffffffffffffffffffffff1681526020019081526020015f205f8282546119b59190612ad7565b925050819055507f000000000000000000000000000000000000000000000000000000000000000073ffffffffffffffffffffffffffffffffffffffff1663a9059cbb33836040518363ffffffff1660e01b8152600401611a17929190612a48565b6020604051808303815f875af1158015611a33573d5f803e3d5ffd5b505050506040513d601f19601f82011682018060405250810190611a579190612916565b507f000000000000000000000000000000000000000000000000000000000000000073ffffffffffffffffffffffffffffffffffffffff163373ffffffffffffffffffffffffffffffffffffffff167ff341246adaac6f497bc2a656f546ab9e182111d630394f0c57c710a59a2cb5678385604051611ad7929190612b0a565b60405180910390a350611ae8612679565b50565b60025f9054906101000a900473ffffffffffffffffffffffffffffffffffffffff1681565b5f60035f9054906101000a900473ffffffffffffffffffffffffffffffffffffffff1673ffffffffffffffffffffffffffffffffffffffff1663e6aa216c6040518163ffffffff1660e01b8152600401602060405180830381865afa158015611b7b573d5f803e3d5ffd5b505050506040513d601f19601f82011682018060405250810190611b9f91906129b5565b905090565b5f60035f9054906101000a900473ffffffffffffffffffffffffffffffffffffffff1673ffffffffffffffffffffffffffffffffffffffff166370a08231836040518263ffffffff1660e01b8152600401611bff9190612752565b602060405180830381865afa158015611c1a573d5f803e3d5ffd5b505050506040513d601f19601f82011682018060405250810190611c3e91906129b5565b9050919050565b611c4d612633565b5f8111611c8f576040517f08c379a0000000000000000000000000000000000000000000000000000000008152600401611c8690612a2a565b60405180910390fd5b5f60025f9054906101000a900473ffffffffffffffffffffffffffffffffffffffff1673ffffffffffffffffffffffffffffffffffffffff16639dc29fac33846040518363ffffffff1660e01b8152600401611cec929190612a48565b6020604051808303815f875af1158015611d08573d5f803e3d5ffd5b505050506040513d601f19601f82011682018060405250810190611d2c91906129b5565b905080471015611d71576040517f08c379a0000000000000000000000000000000000000000000000000000000008152600401611d6890612c4b565b60405180910390fd5b8060055f8073ffffffffffffffffffffffffffffffffffffffff1673ffffffffffffffffffffffffffffffffffffffff1681526020019081526020015f205f828254611dbd9190612ad7565b925050819055503373ffffffffffffffffffffffffffffffffffffffff166108fc8290811502906040515f60405180830381858888f19350505050158015611e07573d5f803e3d5ffd5b505f73ffffffffffffffffffffffffffffffffffffffff163373ffffffffffffffffffffffffffffffffffffffff167ff341246adaac6f497bc2a656f546ab9e182111d630394f0c57c710a59a2cb5678385604051611e67929190612b0a565b60405180910390a350611e78612679565b50565b611e836124eb565b5f73ffffffffffffffffffffffffffffffffffffffff168173ffffffffffffffffffffffffffffffffffffffff1603611ef3575f6040517f1e4fbdf7000000000000000000000000000000000000000000000000000000008152600401611eea9190612752565b60405180910390fd5b611efc81612572565b50565b611f076124eb565b5f3411611f49576040517f08c379a0000000000000000000000000000000000000000000000000000000008152600401611f409061288e565b60405180910390fd5b3460055f8073ffffffffffffffffffffffffffffffffffffffff1673ffffffffffffffffffffffffffffffffffffffff1681526020019081526020015f205f828254611f95919061296e565b9250508190555060025f9054906101000a900473ffffffffffffffffffffffffffffffffffffffff1673ffffffffffffffffffffffffffffffffffffffff1663bc4f2d6d60055f8073ffffffffffffffffffffffffffffffffffffffff1673ffffffffffffffffffffffffffffffffffffffff1681526020019081526020015f20546040518263ffffffff1660e01b8152600401612033919061272a565b5f604051808303815f87803b15801561204a575f80fd5b505af115801561205c573d5f803e3d5ffd5b505050505f73ffffffffffffffffffffffffffffffffffffffff167f46d43e5b87357e48b11ed779391dde82d3e7a90d3611250dc284aec8509c6855346040516120a6919061272a565b60405180910390a2565b6120b8612633565b5f34116120fa576040517f08c379a00000000000000000000000000000000000000000000000000000000081526004016120f190612b7b565b60405180910390fd5b5f60025f9054906101000a900473ffffffffffffffffffffffffffffffffffffffff1673ffffffffffffffffffffffffffffffffffffffff166340c10f1933346040518363ffffffff1660e01b8152600401612157929190612a48565b6020604051808303815f875af1158015612173573d5f803e3d5ffd5b505050506040513d601f19601f8201168201806040525081019061219791906129b5565b90503460055f8073ffffffffffffffffffffffffffffffffffffffff1673ffffffffffffffffffffffffffffffffffffffff1681526020019081526020015f205f8282546121e5919061296e565b925050819055505f73ffffffffffffffffffffffffffffffffffffffff163373ffffffffffffffffffffffffffffffffffffffff167fdcbc1c05240f31ff3ad067ef1ee35ce4997762752e3a095284754544f4c709d7348460405161224b929190612b0a565b60405180910390a35061225c612679565b565b612266612633565b5f81116122a8576040517f08c379a000000000000000000000000000000000000000000000000000000000815260040161229f90612b7b565b60405180910390fd5b7f000000000000000000000000000000000000000000000000000000000000000073ffffffffffffffffffffffffffffffffffffffff166323b872dd3330846040518463ffffffff1660e01b8152600401612305939291906128ac565b6020604051808303815f875af1158015612321573d5f803e3d5ffd5b505050506040513d601f19601f820116820180604052508101906123459190612916565b505f60035f9054906101000a900473ffffffffffffffffffffffffffffffffffffffff1673ffffffffffffffffffffffffffffffffffffffff166340c10f1933846040518363ffffffff1660e01b81526004016123a3929190612a48565b6020604051808303815f875af11580156123bf573d5f803e3d5ffd5b505050506040513d601f19601f820116820180604052508101906123e391906129b5565b90508160055f7f000000000000000000000000000000000000000000000000000000000000000073ffffffffffffffffffffffffffffffffffffffff1673ffffffffffffffffffffffffffffffffffffffff1681526020019081526020015f205f828254612451919061296e565b925050819055507f000000000000000000000000000000000000000000000000000000000000000073ffffffffffffffffffffffffffffffffffffffff163373ffffffffffffffffffffffffffffffffffffffff167fdcbc1c05240f31ff3ad067ef1ee35ce4997762752e3a095284754544f4c709d784846040516124d7929190612b0a565b60405180910390a3506124e8612679565b50565b6124f3612682565b73ffffffffffffffffffffffffffffffffffffffff1661251161135e565b73ffffffffffffffffffffffffffffffffffffffff161461257057612534612682565b6040517f118cdaa70000000000000000000000000000000000000000000000000000000081526004016125679190612752565b60405180910390fd5b565b5f805f9054906101000a900473ffffffffffffffffffffffffffffffffffffffff169050815f806101000a81548173ffffffffffffffffffffffffffffffffffffffff021916908373ffffffffffffffffffffffffffffffffffffffff1602179055508173ffffffffffffffffffffffffffffffffffffffff168173ffffffffffffffffffffffffffffffffffffffff167f8be0079c531659141344cd1fd0a4f28419497f9722a3daafe3b4186f6b6457e060405160405180910390a35050565b60026001540361266f576040517f3ee5aeb500000000000000000000000000000000000000000000000000000000815260040160405180910390fd5b6002600181905550565b60018081905550565b5f33905090565b5f80fd5b5f73ffffffffffffffffffffffffffffffffffffffff82169050919050565b5f6126b68261268d565b9050919050565b6126c6816126ac565b81146126d0575f80fd5b50565b5f813590506126e1816126bd565b92915050565b5f602082840312156126fc576126fb612689565b5b5f612709848285016126d3565b91505092915050565b5f819050919050565b61272481612712565b82525050565b5f60208201905061273d5f83018461271b565b92915050565b61274c816126ac565b82525050565b5f6020820190506127655f830184612743565b92915050565b61277481612712565b811461277e575f80fd5b50565b5f8135905061278f8161276b565b92915050565b5f602082840312156127aa576127a9612689565b5b5f6127b784828501612781565b91505092915050565b5f819050919050565b5f6127e36127de6127d98461268d565b6127c0565b61268d565b9050919050565b5f6127f4826127c9565b9050919050565b5f612805826127ea565b9050919050565b612815816127fb565b82525050565b5f60208201905061282e5f83018461280c565b92915050565b5f82825260208201905092915050565b7f496e746572657374206d7573742062652067726561746572207468616e2030005f82015250565b5f612878601f83612834565b915061288382612844565b602082019050919050565b5f6020820190508181035f8301526128a58161286c565b9050919050565b5f6060820190506128bf5f830186612743565b6128cc6020830185612743565b6128d9604083018461271b565b949350505050565b5f8115159050919050565b6128f5816128e1565b81146128ff575f80fd5b50565b5f81519050612910816128ec565b92915050565b5f6020828403121561292b5761292a612689565b5b5f61293884828501612902565b91505092915050565b7f4e487b71000000000000000000000000000000000000000000000000000000005f52601160045260245ffd5b5f61297882612712565b915061298383612712565b925082820190508082111561299b5761299a612941565b5b92915050565b5f815190506129af8161276b565b92915050565b5f602082840312156129ca576129c9612689565b5b5f6129d7848285016129a1565b91505092915050565b7f536861726573206d7573742062652067726561746572207468616e20300000005f82015250565b5f612a14601d83612834565b9150612a1f826129e0565b602082019050919050565b5f6020820190508181035f830152612a4181612a08565b9050919050565b5f604082019050612a5b5f830185612743565b612a68602083018461271b565b9392505050565b7f496e73756666696369656e74204d41544943206c6971756964697479000000005f82015250565b5f612aa3601c83612834565b9150612aae82612a6f565b602082019050919050565b5f6020820190508181035f830152612ad081612a97565b9050919050565b5f612ae182612712565b9150612aec83612712565b9250828203905081811115612b0457612b03612941565b5b92915050565b5f604082019050612b1d5f83018561271b565b612b2a602083018461271b565b9392505050565b7f416d6f756e74206d7573742062652067726561746572207468616e20300000005f82015250565b5f612b65601d83612834565b9150612b7082612b31565b602082019050919050565b5f6020820190508181035f830152612b9281612b59565b9050919050565b7f496e73756666696369656e742055534443206c697175696469747900000000005f82015250565b5f612bcd601b83612834565b9150612bd882612b99565b602082019050919050565b5f6020820190508181035f830152612bfa81612bc1565b9050919050565b7f496e73756666696369656e7420455448206c69717569646974790000000000005f82015250565b5f612c35601a83612834565b9150612c4082612c01565b602082019050919050565b5f6020820190508181035f830152612c6281612c29565b905091905056fea264697066735822122025fe74f80d63ac3e1b0ab0fe9b609b0d9699546f2d6535792045af827494254764736f6c6343000814003360a060405234801562000010575f80fd5b50604051620027523803806200275283398181016040528101906200003691906200040b565b33848481600390816200004a9190620006ef565b5080600490816200005c9190620006ef565b5050505f73ffffffffffffffffffffffffffffffffffffffff168173ffffffffffffffffffffffffffffffffffffffff1603620000d2575f6040517f1e4fbdf7000000000000000000000000000000000000000000000000000000008152600401620000c99190620007e4565b60405180910390fd5b620000e3816200016260201b60201c565b508173ffffffffffffffffffffffffffffffffffffffff1660808173ffffffffffffffffffffffffffffffffffffffff16815250508060065f6101000a81548173ffffffffffffffffffffffffffffffffffffffff021916908373ffffffffffffffffffffffffffffffffffffffff16021790555050505050620007ff565b5f60055f9054906101000a900473ffffffffffffffffffffffffffffffffffffffff1690508160055f6101000a81548173ffffffffffffffffffffffffffffffffffffffff021916908373ffffffffffffffffffffffffffffffffffffffff1602179055508173ffffffffffffffffffffffffffffffffffffffff168173ffffffffffffffffffffffffffffffffffffffff167f8be0079c531659141344cd1fd0a4f28419497f9722a3daafe3b4186f6b6457e060405160405180910390a35050565b5f604051905090565b5f80fd5b5f80fd5b5f80fd5b5f80fd5b5f601f19601f8301169050919050565b7f4e487b71000000000000000000000000000000000000000000000000000000005f52604160045260245ffd5b62000286826200023e565b810181811067ffffffffffffffff82111715620002a857620002a76200024e565b5b80604052505050565b5f620002bc62000225565b9050620002ca82826200027b565b919050565b5f67ffffffffffffffff821115620002ec57620002eb6200024e565b5b620002f7826200023e565b9050602081019050919050565b5f5b838110156200032357808201518184015260208101905062000306565b5f8484015250505050565b5f620003446200033e84620002cf565b620002b1565b9050828152602081018484840111156200036357620003626200023a565b5b6200037084828562000304565b509392505050565b5f82601f8301126200038f576200038e62000236565b5b8151620003a18482602086016200032e565b91505092915050565b5f73ffffffffffffffffffffffffffffffffffffffff82169050919050565b5f620003d582620003aa565b9050919050565b620003e781620003c9565b8114620003f2575f80fd5b50565b5f815190506200040581620003dc565b92915050565b5f805f80608085870312156200042657620004256200022e565b5b5f85015167ffffffffffffffff81111562000446576200044562000232565b5b620004548782880162000378565b945050602085015167ffffffffffffffff81111562000478576200047762000232565b5b620004868782880162000378565b93505060406200049987828801620003f5565b9250506060620004ac87828801620003f5565b91505092959194509250565b5f81519050919050565b7f4e487b71000000000000000000000000000000000000000000000000000000005f52602260045260245ffd5b5f60028204905060018216806200050757607f821691505b6020821081036200051d576200051c620004c2565b5b50919050565b5f819050815f5260205f209050919050565b5f6020601f8301049050919050565b5f82821b905092915050565b5f60088302620005817fffffffffffffffffffffffffffffffffffffffffffffffffffffffffffffffff8262000544565b6200058d868362000544565b95508019841693508086168417925050509392505050565b5f819050919050565b5f819050919050565b5f620005d7620005d1620005cb84620005a5565b620005ae565b620005a5565b9050919050565b5f819050919050565b620005f283620005b7565b6200060a6200060182620005de565b84845462000550565b825550505050565b5f90565b6200062062000612565b6200062d818484620005e7565b505050565b5b818110156200065457620006485f8262000616565b60018101905062000633565b5050565b601f821115620006a3576200066d8162000523565b620006788462000535565b8101602085101562000688578190505b620006a0620006978562000535565b83018262000632565b50505b505050565b5f82821c905092915050565b5f620006c55f1984600802620006a8565b1980831691505092915050565b5f620006df8383620006b4565b9150826002028217905092915050565b620006fa82620004b8565b67ffffffffffffffff8111156200071657620007156200024e565b5b620007228254620004ef565b6200072f82828562000658565b5f60209050601f83116001811462000765575f841562000750578287015190505b6200075c8582620006d2565b865550620007cb565b601f198416620007758662000523565b5f5b828110156200079e5784890151825560018201915060208501945060208101905062000777565b86831015620007be5784890151620007ba601f891682620006b4565b8355505b6001600288020188555050505b505050505050565b620007de81620003c9565b82525050565b5f602082019050620007f95f830184620007d3565b92915050565b608051611f3a620008185f395f6108c00152611f3a5ff3fe608060405234801561000f575f80fd5b506004361061014b575f3560e01c80637fe0c850116100c1578063bc4f2d6d1161007a578063bc4f2d6d146103b7578063dd62ed3e146103d3578063e0b231fa14610403578063e6aa216c14610433578063f2fde38b14610451578063f5eb42dc1461046d5761014b565b80637fe0c850146102cd57806384436d3e146102fd5780638da5cb5b1461031b57806395d89b41146103395780639dc29fac14610357578063a9059cbb146103875761014b565b8063313ce56711610113578063313ce567146102095780633a98ef391461022757806340c10f191461024557806370a0823114610275578063715018a6146102a55780637158da7c146102af5761014b565b806301e1d1141461014f57806306fdde031461016d578063095ea7b31461018b57806318160ddd146101bb57806323b872dd146101d9575b5f80fd5b61015761049d565b6040516101649190611676565b60405180910390f35b6101756104a3565b6040516101829190611719565b60405180910390f35b6101a560048036038101906101a091906117c1565b610533565b6040516101b29190611819565b60405180910390f35b6101c3610555565b6040516101d09190611676565b60405180910390f35b6101f360048036038101906101ee9190611832565b61055e565b6040516102009190611819565b60405180910390f35b610211610580565b60405161021e919061189d565b60405180910390f35b61022f610588565b60405161023c9190611676565b60405180910390f35b61025f600480360381019061025a91906117c1565b61058e565b60405161026c9190611676565b60405180910390f35b61028f600480360381019061028a91906118b6565b610839565b60405161029c9190611676565b60405180910390f35b6102ad6108ab565b005b6102b76108be565b6040516102c491906118f0565b60405180910390f35b6102e760048036038101906102e29190611909565b6108e2565b6040516102f49190611676565b60405180910390f35b610305610917565b60405161031291906118f0565b60405180910390f35b61032361093c565b60405161033091906118f0565b60405180910390f35b610341610964565b60405161034e9190611719565b60405180910390f35b610371600480360381019061036c91906117c1565b6109f4565b60405161037e9190611676565b60405180910390f35b6103a1600480360381019061039c91906117c1565b610d0f565b6040516103ae9190611819565b60405180910390f35b6103d160048036038101906103cc9190611909565b610d25565b005b6103ed60048036038101906103e89190611934565b610e3a565b6040516103fa9190611676565b60405180910390f35b61041d60048036038101906104189190611909565b610ebc565b60405161042a9190611676565b60405180910390f35b61043b610ef1565b6040516104489190611676565b60405180910390f35b61046b600480360381019061046691906118b6565b610f34565b005b610487600480360381019061048291906118b6565b610fb8565b6040516104949190611676565b60405180910390f35b60085481565b6060600380546104b29061199f565b80601f01602080910402602001604051908101604052809291908181526020018280546104de9061199f565b80156105295780601f1061050057610100808354040283529160200191610529565b820191905f5260205f20905b81548152906001019060200180831161050c57829003601f168201915b5050505050905090565b5f8061053d610ffe565b905061054a818585611005565b600191505092915050565b5f600854905090565b5f61056a843384611017565b6105758484846110aa565b600190509392505050565b5f6012905090565b60075481565b5f60065f9054906101000a900473ffffffffffffffffffffffffffffffffffffffff1673ffffffffffffffffffffffffffffffffffffffff163373ffffffffffffffffffffffffffffffffffffffff161461061e576040517f08c379a000000000000000000000000000000000000000000000000000000000815260040161061590611a19565b60405180910390fd5b5f73ffffffffffffffffffffffffffffffffffffffff168373ffffffffffffffffffffffffffffffffffffffff160361068c576040517f08c379a000000000000000000000000000000000000000000000000000000000815260040161068390611a81565b60405180910390fd5b5f82116106ce576040517f08c379a00000000000000000000000000000000000000000000000000000000081526004016106c590611ae9565b60405180910390fd5b5f600754146106f757600854600754836106e89190611b34565b6106f29190611ba2565b6106f9565b815b90508060095f8573ffffffffffffffffffffffffffffffffffffffff1673ffffffffffffffffffffffffffffffffffffffff1681526020019081526020015f205f8282546107479190611bd2565b925050819055508060075f82825461075f9190611bd2565b925050819055508160085f8282546107779190611bd2565b925050819055508273ffffffffffffffffffffffffffffffffffffffff167fd5103f333769455df788908e17b0f6f83838ebeae2cd1ed6f23ec20dad88c9a382846040516107c6929190611c05565b60405180910390a28273ffffffffffffffffffffffffffffffffffffffff165f73ffffffffffffffffffffffffffffffffffffffff167fddf252ad1be2c89b69c2b068fc378daa952ba7f163c4a11628f55a4df523b3ef8460405161082b9190611676565b60405180910390a392915050565b5f806007540361084b575f90506108a6565b60075460085460095f8573ffffffffffffffffffffffffffffffffffffffff1673ffffffffffffffffffffffffffffffffffffffff1681526020019081526020015f20546108999190611b34565b6108a39190611ba2565b90505b919050565b6108b3611345565b6108bc5f6113cc565b565b7f000000000000000000000000000000000000000000000000000000000000000081565b5f80600754036108f4575f9050610912565b600754600854836109059190611b34565b61090f9190611ba2565b90505b919050565b60065f9054906101000a900473ffffffffffffffffffffffffffffffffffffffff1681565b5f60055f9054906101000a900473ffffffffffffffffffffffffffffffffffffffff16905090565b6060600480546109739061199f565b80601f016020809104026020016040519081016040528092919081815260200182805461099f9061199f565b80156109ea5780601f106109c1576101008083540402835291602001916109ea565b820191905f5260205f20905b8154815290600101906020018083116109cd57829003601f168201915b5050505050905090565b5f60065f9054906101000a900473ffffffffffffffffffffffffffffffffffffffff1673ffffffffffffffffffffffffffffffffffffffff163373ffffffffffffffffffffffffffffffffffffffff1614610a84576040517f08c379a0000000000000000000000000000000000000000000000000000000008152600401610a7b90611a19565b60405180910390fd5b5f73ffffffffffffffffffffffffffffffffffffffff168373ffffffffffffffffffffffffffffffffffffffff1603610af2576040517f08c379a0000000000000000000000000000000000000000000000000000000008152600401610ae990611a81565b60405180910390fd5b5f8211610b34576040517f08c379a0000000000000000000000000000000000000000000000000000000008152600401610b2b90611c76565b60405180910390fd5b8160095f8573ffffffffffffffffffffffffffffffffffffffff1673ffffffffffffffffffffffffffffffffffffffff1681526020019081526020015f20541015610bb4576040517f08c379a0000000000000000000000000000000000000000000000000000000008152600401610bab90611cde565b60405180910390fd5b60075460085483610bc59190611b34565b610bcf9190611ba2565b90508160095f8573ffffffffffffffffffffffffffffffffffffffff1673ffffffffffffffffffffffffffffffffffffffff1681526020019081526020015f205f828254610c1d9190611cfc565b925050819055508160075f828254610c359190611cfc565b925050819055508060085f828254610c4d9190611cfc565b925050819055508273ffffffffffffffffffffffffffffffffffffffff167f8038d1806af22a919dcd5b2a4c313824e515ceb65343ff568379f92a1f3230108383604051610c9c929190611c05565b60405180910390a25f73ffffffffffffffffffffffffffffffffffffffff168373ffffffffffffffffffffffffffffffffffffffff167fddf252ad1be2c89b69c2b068fc378daa952ba7f163c4a11628f55a4df523b3ef83604051610d019190611676565b60405180910390a392915050565b5f610d1b3384846110aa565b6001905092915050565b60065f9054906101000a900473ffffffffffffffffffffffffffffffffffffffff1673ffffffffffffffffffffffffffffffffffffffff163373ffffffffffffffffffffffffffffffffffffffff1614610db4576040517f08c379a0000000000000000000000000000000000000000000000000000000008152600401610dab90611a19565b60405180910390fd5b600854811015610df9576040517f08c379a0000000000000000000000000000000000000000000000000000000008152600401610df090611d79565b60405180910390fd5b806008819055507fafae32ce2847c13a56ab802c034c27d3c19f1d61be48c424c5df134145cd44d081604051610e2f9190611676565b60405180910390a150565b5f60015f8473ffffffffffffffffffffffffffffffffffffffff1673ffffffffffffffffffffffffffffffffffffffff1681526020019081526020015f205f8373ffffffffffffffffffffffffffffffffffffffff1673ffffffffffffffffffffffffffffffffffffffff1681526020019081526020015f2054905092915050565b5f8060075403610ece57819050610eec565b60085460075483610edf9190611b34565b610ee99190611ba2565b90505b919050565b5f8060075403610f0b57670de0b6b3a76400009050610f31565b600754670de0b6b3a7640000600854610f249190611b34565b610f2e9190611ba2565b90505b90565b610f3c611345565b5f73ffffffffffffffffffffffffffffffffffffffff168173ffffffffffffffffffffffffffffffffffffffff1603610fac575f6040517f1e4fbdf7000000000000000000000000000000000000000000000000000000008152600401610fa391906118f0565b60405180910390fd5b610fb5816113cc565b50565b5f60095f8373ffffffffffffffffffffffffffffffffffffffff1673ffffffffffffffffffffffffffffffffffffffff1681526020019081526020015f20549050919050565b5f33905090565b611012838383600161148f565b505050565b5f6110228484610e3a565b90507fffffffffffffffffffffffffffffffffffffffffffffffffffffffffffffffff8110156110a45781811015611095578281836040517ffb8f41b200000000000000000000000000000000000000000000000000000000815260040161108c93929190611d97565b60405180910390fd5b6110a384848484035f61148f565b5b50505050565b5f73ffffffffffffffffffffffffffffffffffffffff168373ffffffffffffffffffffffffffffffffffffffff1603611118576040517f08c379a000000000000000000000000000000000000000000000000000000000815260040161110f90611e16565b60405180910390fd5b5f73ffffffffffffffffffffffffffffffffffffffff168273ffffffffffffffffffffffffffffffffffffffff1603611186576040517f08c379a000000000000000000000000000000000000000000000000000000000815260040161117d90611e7e565b60405180910390fd5b5f80600754146111b057600854600754836111a19190611b34565b6111ab9190611ba2565b6111b2565b5f5b90508060095f8673ffffffffffffffffffffffffffffffffffffffff1673ffffffffffffffffffffffffffffffffffffffff1681526020019081526020015f20541015611234576040517f08c379a000000000000000000000000000000000000000000000000000000000815260040161122b90611ee6565b60405180910390fd5b8060095f8673ffffffffffffffffffffffffffffffffffffffff1673ffffffffffffffffffffffffffffffffffffffff1681526020019081526020015f205f8282546112809190611cfc565b925050819055508060095f8573ffffffffffffffffffffffffffffffffffffffff1673ffffffffffffffffffffffffffffffffffffffff1681526020019081526020015f205f8282546112d39190611bd2565b925050819055508273ffffffffffffffffffffffffffffffffffffffff168473ffffffffffffffffffffffffffffffffffffffff167fddf252ad1be2c89b69c2b068fc378daa952ba7f163c4a11628f55a4df523b3ef846040516113379190611676565b60405180910390a350505050565b61134d610ffe565b73ffffffffffffffffffffffffffffffffffffffff1661136b61093c565b73ffffffffffffffffffffffffffffffffffffffff16146113ca5761138e610ffe565b6040517f118cdaa70000000000000000000000000000000000000000000000000000000081526004016113c191906118f0565b60405180910390fd5b565b5f60055f9054906101000a900473ffffffffffffffffffffffffffffffffffffffff1690508160055f6101000a81548173ffffffffffffffffffffffffffffffffffffffff021916908373ffffffffffffffffffffffffffffffffffffffff1602179055508173ffffffffffffffffffffffffffffffffffffffff168173ffffffffffffffffffffffffffffffffffffffff167f8be0079c531659141344cd1fd0a4f28419497f9722a3daafe3b4186f6b6457e060405160405180910390a35050565b5f73ffffffffffffffffffffffffffffffffffffffff168473ffffffffffffffffffffffffffffffffffffffff16036114ff575f6040517fe602df050000000000000000000000000000000000000000000000000000000081526004016114f691906118f0565b60405180910390fd5b5f73ffffffffffffffffffffffffffffffffffffffff168373ffffffffffffffffffffffffffffffffffffffff160361156f575f6040517f94280d6200000000000000000000000000000000000000000000000000000000815260040161156691906118f0565b60405180910390fd5b8160015f8673ffffffffffffffffffffffffffffffffffffffff1673ffffffffffffffffffffffffffffffffffffffff1681526020019081526020015f205f8573ffffffffffffffffffffffffffffffffffffffff1673ffffffffffffffffffffffffffffffffffffffff1681526020019081526020015f20819055508015611658578273ffffffffffffffffffffffffffffffffffffffff168473ffffffffffffffffffffffffffffffffffffffff167f8c5be1e5ebec7d5bd14f71427d1e84f3dd0314c0f7b2291e5b200ac8c7c3b9258460405161164f9190611676565b60405180910390a35b50505050565b5f819050919050565b6116708161165e565b82525050565b5f6020820190506116895f830184611667565b92915050565b5f81519050919050565b5f82825260208201905092915050565b5f5b838110156116c65780820151818401526020810190506116ab565b5f8484015250505050565b5f601f19601f8301169050919050565b5f6116eb8261168f565b6116f58185611699565b93506117058185602086016116a9565b61170e816116d1565b840191505092915050565b5f6020820190508181035f83015261173181846116e1565b905092915050565b5f80fd5b5f73ffffffffffffffffffffffffffffffffffffffff82169050919050565b5f6117668261173d565b9050919050565b6117768161175c565b8114611780575f80fd5b50565b5f813590506117918161176d565b92915050565b6117a08161165e565b81146117aa575f80fd5b50565b5f813590506117bb81611797565b92915050565b5f80604083850312156117d7576117d6611739565b5b5f6117e485828601611783565b92505060206117f5858286016117ad565b9150509250929050565b5f8115159050919050565b611813816117ff565b82525050565b5f60208201905061182c5f83018461180a565b92915050565b5f805f6060848603121561184957611848611739565b5b5f61185686828701611783565b935050602061186786828701611783565b9250506040611878868287016117ad565b9150509250925092565b5f60ff82169050919050565b61189781611882565b82525050565b5f6020820190506118b05f83018461188e565b92915050565b5f602082840312156118cb576118ca611739565b5b5f6118d884828501611783565b91505092915050565b6118ea8161175c565b82525050565b5f6020820190506119035f8301846118e1565b92915050565b5f6020828403121561191e5761191d611739565b5b5f61192b848285016117ad565b91505092915050565b5f806040838503121561194a57611949611739565b5b5f61195785828601611783565b925050602061196885828601611783565b9150509250929050565b7f4e487b71000000000000000000000000000000000000000000000000000000005f52602260045260245ffd5b5f60028204905060018216806119b657607f821691505b6020821081036119c9576119c8611972565b5b50919050565b7f4f6e6c79206c656e64696e672070726f746f636f6c00000000000000000000005f82015250565b5f611a03601583611699565b9150611a0e826119cf565b602082019050919050565b5f6020820190508181035f830152611a30816119f7565b9050919050565b7f496e76616c6964206164647265737300000000000000000000000000000000005f82015250565b5f611a6b600f83611699565b9150611a7682611a37565b602082019050919050565b5f6020820190508181035f830152611a9881611a5f565b9050919050565b7f496e76616c696420616d6f756e740000000000000000000000000000000000005f82015250565b5f611ad3600e83611699565b9150611ade82611a9f565b602082019050919050565b5f6020820190508181035f830152611b0081611ac7565b9050919050565b7f4e487b71000000000000000000000000000000000000000000000000000000005f52601160045260245ffd5b5f611b3e8261165e565b9150611b498361165e565b9250828202611b578161165e565b91508282048414831517611b6e57611b6d611b07565b5b5092915050565b7f4e487b71000000000000000000000000000000000000000000000000000000005f52601260045260245ffd5b5f611bac8261165e565b9150611bb78361165e565b925082611bc757611bc6611b75565b5b828204905092915050565b5f611bdc8261165e565b9150611be78361165e565b9250828201905080821115611bff57611bfe611b07565b5b92915050565b5f604082019050611c185f830185611667565b611c256020830184611667565b9392505050565b7f496e76616c6964207368617265730000000000000000000000000000000000005f82015250565b5f611c60600e83611699565b9150611c6b82611c2c565b602082019050919050565b5f6020820190508181035f830152611c8d81611c54565b9050919050565b7f496e73756666696369656e7420736861726573000000000000000000000000005f82015250565b5f611cc8601383611699565b9150611cd382611c94565b602082019050919050565b5f6020820190508181035f830152611cf581611cbc565b9050919050565b5f611d068261165e565b9150611d118361165e565b9250828203905081811115611d2957611d28611b07565b5b92915050565b7f43616e6e6f7420646563726561736520617373657473000000000000000000005f82015250565b5f611d63601683611699565b9150611d6e82611d2f565b602082019050919050565b5f6020820190508181035f830152611d9081611d57565b9050919050565b5f606082019050611daa5f8301866118e1565b611db76020830185611667565b611dc46040830184611667565b949350505050565b7f496e76616c69642066726f6d20616464726573730000000000000000000000005f82015250565b5f611e00601483611699565b9150611e0b82611dcc565b602082019050919050565b5f6020820190508181035f830152611e2d81611df4565b9050919050565b7f496e76616c696420746f206164647265737300000000000000000000000000005f82015250565b5f611e68601283611699565b9150611e7382611e34565b602082019050919050565b5f6020820190508181035f830152611e9581611e5c565b9050919050565b7f496e73756666696369656e742062616c616e63650000000000000000000000005f82015250565b5f611ed0601483611699565b9150611edb82611e9c565b602082019050919050565b5f6020820190508181035f830152611efd81611ec4565b905091905056fea264697066735822122060e18907248f3099d7a8af6d6c1caa7b245b054d7d8d1a303eb07f9e2afe5ded64736f6c63430008140033","linkReferences":{}},"methodIdentifiers":{"ETH_ADDRESS()":"a734f06e","MATIC()":"15b550d6","USDC()":"89a30271","addETHInterest()":"f529974f","addMATICInterest(uint256)":"345cf42b","addUSDCInterest(uint256)":"a8f052b9","depositETH()":"f6326fb3","depositMATIC(uint256)":"8b8500ff","depositUSDC(uint256)":"f688bcfb","getETHExchangeRate()":"b9ab0789","getMATICExchangeRate()":"ab08e93a","getTotalReserves(address)":"050e5705","getUSDCExchangeRate()":"e57439af","getUserETHBalance(address)":"464beb06","getUserETHShares(address)":"75eb2365","getUserMATICBalance(address)":"36ce6660","getUserMATICShares(address)":"39d311a8","getUserUSDCBalance(address)":"eb47ea66","getUserUSDCShares(address)":"67c98cad","owner()":"8da5cb5b","renounceOwnership()":"715018a6","saETH()":"de4a8a08","saMATIC()":"8dff7ec3","saUSDC()":"8aa6aaba","totalReserves(address)":"6d0800bc","transferOwnership(address)":"f2fde38b","withdrawETH(uint256)":"f14210a6","withdrawMATIC(uint256)":"816837e3","withdrawUSDC(uint256)":"db81f99b"},"id":8}