{"abi":[{"type":"constructor","inputs":[{"name":"name","type":"string","internalType":"string"},{"name":"symbol","type":"string","internalType":"string"},{"name":"_underlyingAsset","type":"address","internalType":"address"},{"name":"_lendingProtocol","type":"address","internalType":"address"}],"stateMutability":"nonpayable"},{"type":"function","name":"allowance","inputs":[{"name":"owner","type":"address","internalType":"address"},{"name":"spender","type":"address","internalType":"address"}],"outputs":[{"name":"","type":"uint256","internalType":"uint256"}],"stateMutability":"view"},{"type":"function","name":"approve","inputs":[{"name":"spender","type":"address","internalType":"address"},{"name":"value","type":"uint256","internalType":"uint256"}],"outputs":[{"name":"","type":"bool","internalType":"bool"}],"stateMutability":"nonpayable"},{"type":"function","name":"assetsToShares","inputs":[{"name":"assets","type":"uint256","internalType":"uint256"}],"outputs":[{"name":"","type":"uint256","internalType":"uint256"}],"stateMutability":"view"},{"type":"function","name":"balanceOf","inputs":[{"name":"account","type":"address","internalType":"address"}],"outputs":[{"name":"","type":"uint256","internalType":"uint256"}],"stateMutability":"view"},{"type":"function","name":"burn","inputs":[{"name":"from","type":"address","internalType":"address"},{"name":"shares","type":"uint256","internalType":"uint256"}],"outputs":[{"name":"assets","type":"uint256","internalType":"uint256"}],"stateMutability":"nonpayable"},{"type":"function","name":"decimals","inputs":[],"outputs":[{"name":"","type":"uint8","internalType":"uint8"}],"stateMutability":"view"},{"type":"function","name":"getExchangeRate","inputs":[],"outputs":[{"name":"","type":"uint256","internalType":"uint256"}],"stateMutability":"view"},{"type":"function","name":"lendingProtocol","inputs":[],"outputs":[{"name":"","type":"address","internalType":"address"}],"stateMutability":"view"},{"type":"function","name":"mint","inputs":[{"name":"to","type":"address","internalType":"address"},{"name":"assets","type":"uint256","internalType":"uint256"}],"outputs":[{"name":"shares","type":"uint256","internalType":"uint256"}],"stateMutability":"nonpayable"},{"type":"function","name":"name","inputs":[],"outputs":[{"name":"","type":"string","internalType":"string"}],"stateMutability":"view"},{"type":"function","name":"owner","inputs":[],"outputs":[{"name":"","type":"address","internalType":"address"}],"stateMutability":"view"},{"type":"function","name":"rebase","inputs":[{"name":"newTotalAssets","type":"uint256","internalType":"uint256"}],"outputs":[],"stateMutability":"nonpayable"},{"type":"function","name":"renounceOwnership","inputs":[],"outputs":[],"stateMutability":"nonpayable"},{"type":"function","name":"sharesOf","inputs":[{"name":"account","type":"address","internalType":"address"}],"outputs":[{"name":"","type":"uint256","internalType":"uint256"}],"stateMutability":"view"},{"type":"function","name":"sharesToAssets","inputs":[{"name":"shares","type":"uint256","internalType":"uint256"}],"outputs":[{"name":"","type":"uint256","internalType":"uint256"}],"stateMutability":"view"},{"type":"function","name":"symbol","inputs":[],"outputs":[{"name":"","type":"string","internalType":"string"}],"stateMutability":"view"},{"type":"function","name":"totalAssets","inputs":[],"outputs":[{"name":"","type":"uint256","internalType":"uint256"}],"stateMutability":"view"},{"type":"function","name":"totalShares","inputs":[],"outputs":[{"name":"","type":"uint256","internalType":"uint256"}],"stateMutability":"view"},{"type":"function","name":"totalSupply","inputs":[],"outputs":[{"name":"","type":"uint256","internalType":"uint256"}],"stateMutability":"view"},{"type":"function","name":"transfer","inputs":[{"name":"to","type":"address","internalType":"address"},{"name":"amount","type":"uint256","internalType":"uint256"}],"outputs":[{"name":"","type":"bool","internalType":"bool"}],"stateMutability":"nonpayable"},{"type":"function","name":"transferFrom","inputs":[{"name":"from","type":"address","internalType":"address"},{"name":"to","type":"address","internalType":"address"},{"name":"amount","type":"uint256","internalType":"uint256"}],"outputs":[{"name":"","type":"bool","internalType":"bool"}],"stateMutability":"nonpayable"},{"type":"function","name":"transferOwnership","inputs":[{"name":"newOwner","type":"address","internalType":"address"}],"outputs":[],"stateMutability":"nonpayable"},{"type":"function","name":"underlyingAsset","inputs":[],"outputs":[{"name":"","type":"address","internalType":"address"}],"stateMutability":"view"},{"type":"event","name":"Approval","inputs":[{"name":"owner","type":"address","indexed":true,"internalType":"address"},{"name":"spender","type":"address","indexed":true,"internalType":"address"},{"name":"value","type":"uint256","indexed":false,"internalType":"uint256"}],"anonymous":false},{"type":"event","name":"OwnershipTransferred","inputs":[{"name":"previousOwner","type":"address","indexed":true,"internalType":"address"},{"name":"newOwner","type":"address","indexed":true,"internalType":"address"}],"anonymous":false},{"type":"event","name":"Rebase","inputs":[{"name":"newTotalAssets","type":"uint256","indexed":false,"internalType":"uint256"}],"anonymous":false},{"type":"event","name":"SharesBurned","inputs":[{"name":"from","type":"address","indexed":true,"internalType":"address"},{"name":"shares","type":"uint256","indexed":false,"internalType":"uint256"},{"name":"assets","type":"uint256","indexed":false,"internalType":"uint256"}],"anonymous":false},{"type":"event","name":"SharesMinted","inputs":[{"name":"to","type":"address","indexed":true,"internalType":"address"},{"name":"shares","type":"uint256","indexed":false,"internalType":"uint256"},{"name":"assets","type":"uint256","indexed":false,"internalType":"uint256"}],"anonymous":false},{"type":"event","name":"Transfer","inputs":[{"name":"from","type":"address","indexed":true,"internalType":"address"},{"name":"to","type":"address","indexed":true,"internalType":"address"},{"name":"value","type":"uint256","indexed":false,"internalType":"uint256"}],"anonymous":false},{"type":"error","name":"ERC20InsufficientAllowance","inputs":[{"name":"spender","type":"address","internalType":"address"},{"name":"allowance","type":"uint256","internalType":"uint256"},{"name":"needed","type":"uint256","internalType":"uint256"}]},{"type":"error","name":"ERC20InsufficientBalance","inputs":[{"name":"sender","type":"address","internalType":"address"},{"name":"balance","type":"uint256","internalType":"uint256"},{"name":"needed","type":"uint256","internalType":"uint256"}]},{"type":"error","name":"ERC20InvalidApprover","inputs":[{"name":"approver","type":"address","internalType":"address"}]},{"type":"error","name":"ERC20InvalidReceiver","inputs":[{"name":"receiver","type":"address","internalType":"address"}]},{"type":"error","name":"ERC20InvalidSender","inputs":[{"name":"sender","type":"address","internalType":"address"}]},{"type":"error","name":"ERC20InvalidSpender","inputs":[{"name":"spender","type":"address","internalType":"address"}]},{"type":"error","name":"OwnableInvalidOwner","inputs":[{"name":"owner","type":"address","internalType":"address"}]},{"type":"error","name":"OwnableUnauthorizedAccount","inputs":[{"name":"account","type":"address","internalType":"address"}]}],"bytecode":{"object":"0x60a060405234801562000010575f80fd5b50604051620027523803806200275283398181016040528101906200003691906200040b565b33848481600390816200004a9190620006ef565b5080600490816200005c9190620006ef565b5050505f73ffffffffffffffffffffffffffffffffffffffff168173ffffffffffffffffffffffffffffffffffffffff1603620000d2575f6040517f1e4fbdf7000000000000000000000000000000000000000000000000000000008152600401620000c99190620007e4565b60405180910390fd5b620000e3816200016260201b60201c565b508173ffffffffffffffffffffffffffffffffffffffff1660808173ffffffffffffffffffffffffffffffffffffffff16815250508060065f6101000a81548173ffffffffffffffffffffffffffffffffffffffff021916908373ffffffffffffffffffffffffffffffffffffffff16021790555050505050620007ff565b5f60055f9054906101000a900473ffffffffffffffffffffffffffffffffffffffff1690508160055f6101000a81548173ffffffffffffffffffffffffffffffffffffffff021916908373ffffffffffffffffffffffffffffffffffffffff1602179055508173ffffffffffffffffffffffffffffffffffffffff168173ffffffffffffffffffffffffffffffffffffffff167f8be0079c531659141344cd1fd0a4f28419497f9722a3daafe3b4186f6b6457e060405160405180910390a35050565b5f604051905090565b5f80fd5b5f80fd5b5f80fd5b5f80fd5b5f601f19601f8301169050919050565b7f4e487b71000000000000000000000000000000000000000000000000000000005f52604160045260245ffd5b62000286826200023e565b810181811067ffffffffffffffff82111715620002a857620002a76200024e565b5b80604052505050565b5f620002bc62000225565b9050620002ca82826200027b565b919050565b5f67ffffffffffffffff821115620002ec57620002eb6200024e565b5b620002f7826200023e565b9050602081019050919050565b5f5b838110156200032357808201518184015260208101905062000306565b5f8484015250505050565b5f620003446200033e84620002cf565b620002b1565b9050828152602081018484840111156200036357620003626200023a565b5b6200037084828562000304565b509392505050565b5f82601f8301126200038f576200038e62000236565b5b8151620003a18482602086016200032e565b91505092915050565b5f73ffffffffffffffffffffffffffffffffffffffff82169050919050565b5f620003d582620003aa565b9050919050565b620003e781620003c9565b8114620003f2575f80fd5b50565b5f815190506200040581620003dc565b92915050565b5f805f80608085870312156200042657620004256200022e565b5b5f85015167ffffffffffffffff81111562000446576200044562000232565b5b620004548782880162000378565b945050602085015167ffffffffffffffff81111562000478576200047762000232565b5b620004868782880162000378565b93505060406200049987828801620003f5565b9250506060620004ac87828801620003f5565b91505092959194509250565b5f81519050919050565b7f4e487b71000000000000000000000000000000000000000000000000000000005f52602260045260245ffd5b5f60028204905060018216806200050757607f821691505b6020821081036200051d576200051c620004c2565b5b50919050565b5f819050815f5260205f209050919050565b5f6020601f8301049050919050565b5f82821b905092915050565b5f60088302620005817fffffffffffffffffffffffffffffffffffffffffffffffffffffffffffffffff8262000544565b6200058d868362000544565b95508019841693508086168417925050509392505050565b5f819050919050565b5f819050919050565b5f620005d7620005d1620005cb84620005a5565b620005ae565b620005a5565b9050919050565b5f819050919050565b620005f283620005b7565b6200060a6200060182620005de565b84845462000550565b825550505050565b5f90565b6200062062000612565b6200062d818484620005e7565b505050565b5b818110156200065457620006485f8262000616565b60018101905062000633565b5050565b601f821115620006a3576200066d8162000523565b620006788462000535565b8101602085101562000688578190505b620006a0620006978562000535565b83018262000632565b50505b505050565b5f82821c905092915050565b5f620006c55f1984600802620006a8565b1980831691505092915050565b5f620006df8383620006b4565b9150826002028217905092915050565b620006fa82620004b8565b67ffffffffffffffff8111156200071657620007156200024e565b5b620007228254620004ef565b6200072f82828562000658565b5f60209050601f83116001811462000765575f841562000750578287015190505b6200075c8582620006d2565b865550620007cb565b601f198416620007758662000523565b5f5b828110156200079e5784890151825560018201915060208501945060208101905062000777565b86831015620007be5784890151620007ba601f891682620006b4565b8355505b6001600288020188555050505b505050505050565b620007de81620003c9565b82525050565b5f602082019050620007f95f830184620007d3565b92915050565b608051611f3a620008185f395f6108c00152611f3a5ff3fe608060405234801561000f575f80fd5b506004361061014b575f3560e01c80637fe0c850116100c1578063bc4f2d6d1161007a578063bc4f2d6d146103b7578063dd62ed3e146103d3578063e0b231fa14610403578063e6aa216c14610433578063f2fde38b14610451578063f5eb42dc1461046d5761014b565b80637fe0c850146102cd57806384436d3e146102fd5780638da5cb5b1461031b57806395d89b41146103395780639dc29fac14610357578063a9059cbb146103875761014b565b8063313ce56711610113578063313ce567146102095780633a98ef391461022757806340c10f191461024557806370a0823114610275578063715018a6146102a55780637158da7c146102af5761014b565b806301e1d1141461014f57806306fdde031461016d578063095ea7b31461018b57806318160ddd146101bb57806323b872dd146101d9575b5f80fd5b61015761049d565b6040516101649190611676565b60405180910390f35b6101756104a3565b6040516101829190611719565b60405180910390f35b6101a560048036038101906101a091906117c1565b610533565b6040516101b29190611819565b60405180910390f35b6101c3610555565b6040516101d09190611676565b60405180910390f35b6101f360048036038101906101ee9190611832565b61055e565b6040516102009190611819565b60405180910390f35b610211610580565b60405161021e919061189d565b60405180910390f35b61022f610588565b60405161023c9190611676565b60405180910390f35b61025f600480360381019061025a91906117c1565b61058e565b60405161026c9190611676565b60405180910390f35b61028f600480360381019061028a91906118b6565b610839565b60405161029c9190611676565b60405180910390f35b6102ad6108ab565b005b6102b76108be565b6040516102c491906118f0565b60405180910390f35b6102e760048036038101906102e29190611909565b6108e2565b6040516102f49190611676565b60405180910390f35b610305610917565b60405161031291906118f0565b60405180910390f35b61032361093c565b60405161033091906118f0565b60405180910390f35b610341610964565b60405161034e9190611719565b60405180910390f35b610371600480360381019061036c91906117c1565b6109f4565b60405161037e9190611676565b60405180910390f35b6103a1600480360381019061039c91906117c1565b610d0f565b6040516103ae9190611819565b60405180910390f35b6103d160048036038101906103cc9190611909565b610d25565b005b6103ed60048036038101906103e89190611934565b610e3a565b6040516103fa9190611676565b60405180910390f35b61041d60048036038101906104189190611909565b610ebc565b60405161042a9190611676565b60405180910390f35b61043b610ef1565b6040516104489190611676565b60405180910390f35b61046b600480360381019061046691906118b6565b610f34565b005b610487600480360381019061048291906118b6565b610fb8565b6040516104949190611676565b60405180910390f35b60085481565b6060600380546104b29061199f565b80601f01602080910402602001604051908101604052809291908181526020018280546104de9061199f565b80156105295780601f1061050057610100808354040283529160200191610529565b820191905f5260205f20905b81548152906001019060200180831161050c57829003601f168201915b5050505050905090565b5f8061053d610ffe565b905061054a818585611005565b600191505092915050565b5f600854905090565b5f61056a843384611017565b6105758484846110aa565b600190509392505050565b5f6012905090565b60075481565b5f60065f9054906101000a900473ffffffffffffffffffffffffffffffffffffffff1673ffffffffffffffffffffffffffffffffffffffff163373ffffffffffffffffffffffffffffffffffffffff161461061e576040517f08c379a000000000000000000000000000000000000000000000000000000000815260040161061590611a19565b60405180910390fd5b5f73ffffffffffffffffffffffffffffffffffffffff168373ffffffffffffffffffffffffffffffffffffffff160361068c576040517f08c379a000000000000000000000000000000000000000000000000000000000815260040161068390611a81565b60405180910390fd5b5f82116106ce576040517f08c379a00000000000000000000000000000000000000000000000000000000081526004016106c590611ae9565b60405180910390fd5b5f600754146106f757600854600754836106e89190611b34565b6106f29190611ba2565b6106f9565b815b90508060095f8573ffffffffffffffffffffffffffffffffffffffff1673ffffffffffffffffffffffffffffffffffffffff1681526020019081526020015f205f8282546107479190611bd2565b925050819055508060075f82825461075f9190611bd2565b925050819055508160085f8282546107779190611bd2565b925050819055508273ffffffffffffffffffffffffffffffffffffffff167fd5103f333769455df788908e17b0f6f83838ebeae2cd1ed6f23ec20dad88c9a382846040516107c6929190611c05565b60405180910390a28273ffffffffffffffffffffffffffffffffffffffff165f73ffffffffffffffffffffffffffffffffffffffff167fddf252ad1be2c89b69c2b068fc378daa952ba7f163c4a11628f55a4df523b3ef8460405161082b9190611676565b60405180910390a392915050565b5f806007540361084b575f90506108a6565b60075460085460095f8573ffffffffffffffffffffffffffffffffffffffff1673ffffffffffffffffffffffffffffffffffffffff1681526020019081526020015f20546108999190611b34565b6108a39190611ba2565b90505b919050565b6108b3611345565b6108bc5f6113cc565b565b7f000000000000000000000000000000000000000000000000000000000000000081565b5f80600754036108f4575f9050610912565b600754600854836109059190611b34565b61090f9190611ba2565b90505b919050565b60065f9054906101000a900473ffffffffffffffffffffffffffffffffffffffff1681565b5f60055f9054906101000a900473ffffffffffffffffffffffffffffffffffffffff16905090565b6060600480546109739061199f565b80601f016020809104026020016040519081016040528092919081815260200182805461099f9061199f565b80156109ea5780601f106109c1576101008083540402835291602001916109ea565b820191905f5260205f20905b8154815290600101906020018083116109cd57829003601f168201915b5050505050905090565b5f60065f9054906101000a900473ffffffffffffffffffffffffffffffffffffffff1673ffffffffffffffffffffffffffffffffffffffff163373ffffffffffffffffffffffffffffffffffffffff1614610a84576040517f08c379a0000000000000000000000000000000000000000000000000000000008152600401610a7b90611a19565b60405180910390fd5b5f73ffffffffffffffffffffffffffffffffffffffff168373ffffffffffffffffffffffffffffffffffffffff1603610af2576040517f08c379a0000000000000000000000000000000000000000000000000000000008152600401610ae990611a81565b60405180910390fd5b5f8211610b34576040517f08c379a0000000000000000000000000000000000000000000000000000000008152600401610b2b90611c76565b60405180910390fd5b8160095f8573ffffffffffffffffffffffffffffffffffffffff1673ffffffffffffffffffffffffffffffffffffffff1681526020019081526020015f20541015610bb4576040517f08c379a0000000000000000000000000000000000000000000000000000000008152600401610bab90611cde565b60405180910390fd5b60075460085483610bc59190611b34565b610bcf9190611ba2565b90508160095f8573ffffffffffffffffffffffffffffffffffffffff1673ffffffffffffffffffffffffffffffffffffffff1681526020019081526020015f205f828254610c1d9190611cfc565b925050819055508160075f828254610c359190611cfc565b925050819055508060085f828254610c4d9190611cfc565b925050819055508273ffffffffffffffffffffffffffffffffffffffff167f8038d1806af22a919dcd5b2a4c313824e515ceb65343ff568379f92a1f3230108383604051610c9c929190611c05565b60405180910390a25f73ffffffffffffffffffffffffffffffffffffffff168373ffffffffffffffffffffffffffffffffffffffff167fddf252ad1be2c89b69c2b068fc378daa952ba7f163c4a11628f55a4df523b3ef83604051610d019190611676565b60405180910390a392915050565b5f610d1b3384846110aa565b6001905092915050565b60065f9054906101000a900473ffffffffffffffffffffffffffffffffffffffff1673ffffffffffffffffffffffffffffffffffffffff163373ffffffffffffffffffffffffffffffffffffffff1614610db4576040517f08c379a0000000000000000000000000000000000000000000000000000000008152600401610dab90611a19565b60405180910390fd5b600854811015610df9576040517f08c379a0000000000000000000000000000000000000000000000000000000008152600401610df090611d79565b60405180910390fd5b806008819055507fafae32ce2847c13a56ab802c034c27d3c19f1d61be48c424c5df134145cd44d081604051610e2f9190611676565b60405180910390a150565b5f60015f8473ffffffffffffffffffffffffffffffffffffffff1673ffffffffffffffffffffffffffffffffffffffff1681526020019081526020015f205f8373ffffffffffffffffffffffffffffffffffffffff1673ffffffffffffffffffffffffffffffffffffffff1681526020019081526020015f2054905092915050565b5f8060075403610ece57819050610eec565b60085460075483610edf9190611b34565b610ee99190611ba2565b90505b919050565b5f8060075403610f0b57670de0b6b3a76400009050610f31565b600754670de0b6b3a7640000600854610f249190611b34565b610f2e9190611ba2565b90505b90565b610f3c611345565b5f73ffffffffffffffffffffffffffffffffffffffff168173ffffffffffffffffffffffffffffffffffffffff1603610fac575f6040517f1e4fbdf7000000000000000000000000000000000000000000000000000000008152600401610fa391906118f0565b60405180910390fd5b610fb5816113cc565b50565b5f60095f8373ffffffffffffffffffffffffffffffffffffffff1673ffffffffffffffffffffffffffffffffffffffff1681526020019081526020015f20549050919050565b5f33905090565b611012838383600161148f565b505050565b5f6110228484610e3a565b90507fffffffffffffffffffffffffffffffffffffffffffffffffffffffffffffffff8110156110a45781811015611095578281836040517ffb8f41b200000000000000000000000000000000000000000000000000000000815260040161108c93929190611d97565b60405180910390fd5b6110a384848484035f61148f565b5b50505050565b5f73ffffffffffffffffffffffffffffffffffffffff168373ffffffffffffffffffffffffffffffffffffffff1603611118576040517f08c379a000000000000000000000000000000000000000000000000000000000815260040161110f90611e16565b60405180910390fd5b5f73ffffffffffffffffffffffffffffffffffffffff168273ffffffffffffffffffffffffffffffffffffffff1603611186576040517f08c379a000000000000000000000000000000000000000000000000000000000815260040161117d90611e7e565b60405180910390fd5b5f80600754146111b057600854600754836111a19190611b34565b6111ab9190611ba2565b6111b2565b5f5b90508060095f8673ffffffffffffffffffffffffffffffffffffffff1673ffffffffffffffffffffffffffffffffffffffff1681526020019081526020015f20541015611234576040517f08c379a000000000000000000000000000000000000000000000000000000000815260040161122b90611ee6565b60405180910390fd5b8060095f8673ffffffffffffffffffffffffffffffffffffffff1673ffffffffffffffffffffffffffffffffffffffff1681526020019081526020015f205f8282546112809190611cfc565b925050819055508060095f8573ffffffffffffffffffffffffffffffffffffffff1673ffffffffffffffffffffffffffffffffffffffff1681526020019081526020015f205f8282546112d39190611bd2565b925050819055508273ffffffffffffffffffffffffffffffffffffffff168473ffffffffffffffffffffffffffffffffffffffff167fddf252ad1be2c89b69c2b068fc378daa952ba7f163c4a11628f55a4df523b3ef846040516113379190611676565b60405180910390a350505050565b61134d610ffe565b73ffffffffffffffffffffffffffffffffffffffff1661136b61093c565b73ffffffffffffffffffffffffffffffffffffffff16146113ca5761138e610ffe565b6040517f118cdaa70000000000000000000000000000000000000000000000000000000081526004016113c191906118f0565b60405180910390fd5b565b5f60055f9054906101000a900473ffffffffffffffffffffffffffffffffffffffff1690508160055f6101000a81548173ffffffffffffffffffffffffffffffffffffffff021916908373ffffffffffffffffffffffffffffffffffffffff1602179055508173ffffffffffffffffffffffffffffffffffffffff168173ffffffffffffffffffffffffffffffffffffffff167f8be0079c531659141344cd1fd0a4f28419497f9722a3daafe3b4186f6b6457e060405160405180910390a35050565b5f73ffffffffffffffffffffffffffffffffffffffff168473ffffffffffffffffffffffffffffffffffffffff16036114ff575f6040517fe602df050000000000000000000000000000000000000000000000000000000081526004016114f691906118f0565b60405180910390fd5b5f73ffffffffffffffffffffffffffffffffffffffff168373ffffffffffffffffffffffffffffffffffffffff160361156f575f6040517f94280d6200000000000000000000000000000000000000000000000000000000815260040161156691906118f0565b60405180910390fd5b8160015f8673ffffffffffffffffffffffffffffffffffffffff1673ffffffffffffffffffffffffffffffffffffffff1681526020019081526020015f205f8573ffffffffffffffffffffffffffffffffffffffff1673ffffffffffffffffffffffffffffffffffffffff1681526020019081526020015f20819055508015611658578273ffffffffffffffffffffffffffffffffffffffff168473ffffffffffffffffffffffffffffffffffffffff167f8c5be1e5ebec7d5bd14f71427d1e84f3dd0314c0f7b2291e5b200ac8c7c3b9258460405161164f9190611676565b60405180910390a35b50505050565b5f819050919050565b6116708161165e565b82525050565b5f6020820190506116895f830184611667565b92915050565b5f81519050919050565b5f82825260208201905092915050565b5f5b838110156116c65780820151818401526020810190506116ab565b5f8484015250505050565b5f601f19601f8301169050919050565b5f6116eb8261168f565b6116f58185611699565b93506117058185602086016116a9565b61170e816116d1565b840191505092915050565b5f6020820190508181035f83015261173181846116e1565b905092915050565b5f80fd5b5f73ffffffffffffffffffffffffffffffffffffffff82169050919050565b5f6117668261173d565b9050919050565b6117768161175c565b8114611780575f80fd5b50565b5f813590506117918161176d565b92915050565b6117a08161165e565b81146117aa575f80fd5b50565b5f813590506117bb81611797565b92915050565b5f80604083850312156117d7576117d6611739565b5b5f6117e485828601611783565b92505060206117f5858286016117ad565b9150509250929050565b5f8115159050919050565b611813816117ff565b82525050565b5f60208201905061182c5f83018461180a565b92915050565b5f805f6060848603121561184957611848611739565b5b5f61185686828701611783565b935050602061186786828701611783565b9250506040611878868287016117ad565b9150509250925092565b5f60ff82169050919050565b61189781611882565b82525050565b5f6020820190506118b05f83018461188e565b92915050565b5f602082840312156118cb576118ca611739565b5b5f6118d884828501611783565b91505092915050565b6118ea8161175c565b82525050565b5f6020820190506119035f8301846118e1565b92915050565b5f6020828403121561191e5761191d611739565b5b5f61192b848285016117ad565b91505092915050565b5f806040838503121561194a57611949611739565b5b5f61195785828601611783565b925050602061196885828601611783565b9150509250929050565b7f4e487b71000000000000000000000000000000000000000000000000000000005f52602260045260245ffd5b5f60028204905060018216806119b657607f821691505b6020821081036119c9576119c8611972565b5b50919050565b7f4f6e6c79206c656e64696e672070726f746f636f6c00000000000000000000005f82015250565b5f611a03601583611699565b9150611a0e826119cf565b602082019050919050565b5f6020820190508181035f830152611a30816119f7565b9050919050565b7f496e76616c6964206164647265737300000000000000000000000000000000005f82015250565b5f611a6b600f83611699565b9150611a7682611a37565b602082019050919050565b5f6020820190508181035f830152611a9881611a5f565b9050919050565b7f496e76616c696420616d6f756e740000000000000000000000000000000000005f82015250565b5f611ad3600e83611699565b9150611ade82611a9f565b602082019050919050565b5f6020820190508181035f830152611b0081611ac7565b9050919050565b7f4e487b71000000000000000000000000000000000000000000000000000000005f52601160045260245ffd5b5f611b3e8261165e565b9150611b498361165e565b9250828202611b578161165e565b91508282048414831517611b6e57611b6d611b07565b5b5092915050565b7f4e487b71000000000000000000000000000000000000000000000000000000005f52601260045260245ffd5b5f611bac8261165e565b9150611bb78361165e565b925082611bc757611bc6611b75565b5b828204905092915050565b5f611bdc8261165e565b9150611be78361165e565b9250828201905080821115611bff57611bfe611b07565b5b92915050565b5f604082019050611c185f830185611667565b611c256020830184611667565b9392505050565b7f496e76616c6964207368617265730000000000000000000000000000000000005f82015250565b5f611c60600e83611699565b9150611c6b82611c2c565b602082019050919050565b5f6020820190508181035f830152611c8d81611c54565b9050919050565b7f496e73756666696369656e7420736861726573000000000000000000000000005f82015250565b5f611cc8601383611699565b9150611cd382611c94565b602082019050919050565b5f6020820190508181035f830152611cf581611cbc565b9050919050565b5f611d068261165e565b9150611d118361165e565b9250828203905081811115611d2957611d28611b07565b5b92915050565b7f43616e6e6f7420646563726561736520617373657473000000000000000000005f82015250565b5f611d63601683611699565b9150611d6e82611d2f565b602082019050919050565b5f6020820190508181035f830152611d9081611d57565b9050919050565b5f606082019050611daa5f8301866118e1565b611db76020830185611667565b611dc46040830184611667565b949350505050565b7f496e76616c69642066726f6d20616464726573730000000000000000000000005f82015250565b5f611e00601483611699565b9150611e0b82611dcc565b602082019050919050565b5f6020820190508181035f830152611e2d81611df4565b9050919050565b7f496e76616c696420746f206164647265737300000000000000000000000000005f82015250565b5f611e68601283611699565b9150611e7382611e34565b602082019050919050565b5f6020820190508181035f830152611e9581611e5c565b9050919050565b7f496e73756666696369656e742062616c616e63650000000000000000000000005f82015250565b5f611ed0601483611699565b9150611edb82611e9c565b602082019050919050565b5f6020820190508181035f830152611efd81611ec4565b905091905056fea264697066735822122060e18907248f3099d7a8af6d6c1caa7b245b054d7d8d1a303eb07f9e2afe5ded64736f6c63430008140033","linkReferences":{}},"methodIdentifiers":{"allowance(address,address)":"dd62ed3e","approve(address,uint256)":"095ea7b3","assetsToShares(uint256)":"e0b231fa","balanceOf(address)":"70a08231","burn(address,uint256)":"9dc29fac","decimals()":"313ce567","getExchangeRate()":"e6aa216c","lendingProtocol()":"84436d3e","mint(address,uint256)":"40c10f19","name()":"06fdde03","owner()":"8da5cb5b","rebase(uint256)":"bc4f2d6d","renounceOwnership()":"715018a6","sharesOf(address)":"f5eb42dc","sharesToAssets(uint256)":"7fe0c850","symbol()":"95d89b41","totalAssets()":"01e1d114","totalShares()":"3a98ef39","totalSupply()":"18160ddd","transfer(address,uint256)":"a9059cbb","transferFrom(address,address,uint256)":"23b872dd","transferOwnership(address)":"f2fde38b","underlyingAsset()":"7158da7c"},"id":9}